{
  "_format": "hh-sol-artifact-1",
  "contractName": "UsdtToken",
  "sourceName": "contracts/UsdtToken.sol",
  "abi": [
    {
      "inputs": [],
      "stateMutability": "nonpayable",
      "type": "constructor"
    },
    {
      "inputs": [
        {
          "internalType": "address",
          "name": "spender",
          "type": "address"
        },
        {
          "internalType": "uint256",
          "name": "allowance",
          "type": "uint256"
        },
        {
          "internalType": "uint256",
          "name": "needed",
          "type": "uint256"
        }
      ],
      "name": "ERC20InsufficientAllowance",
      "type": "error"
    },
    {
      "inputs": [
        {
          "internalType": "address",
          "name": "sender",
          "type": "address"
        },
        {
          "internalType": "uint256",
          "name": "balance",
          "type": "uint256"
        },
        {
          "internalType": "uint256",
          "name": "needed",
          "type": "uint256"
        }
      ],
      "name": "ERC20InsufficientBalance",
      "type": "error"
    },
    {
      "inputs": [
        {
          "internalType": "address",
          "name": "approver",
          "type": "address"
        }
      ],
      "name": "ERC20InvalidApprover",
      "type": "error"
    },
    {
      "inputs": [
        {
          "internalType": "address",
          "name": "receiver",
          "type": "address"
        }
      ],
      "name": "ERC20InvalidReceiver",
      "type": "error"
    },
    {
      "inputs": [
        {
          "internalType": "address",
          "name": "sender",
          "type": "address"
        }
      ],
      "name": "ERC20InvalidSender",
      "type": "error"
    },
    {
      "inputs": [
        {
          "internalType": "address",
          "name": "spender",
          "type": "address"
        }
      ],
      "name": "ERC20InvalidSpender",
      "type": "error"
    },
    {
      "inputs": [
        {
          "internalType": "address",
          "name": "owner",
          "type": "address"
        }
      ],
      "name": "OwnableInvalidOwner",
      "type": "error"
    },
    {
      "inputs": [
        {
          "internalType": "address",
          "name": "account",
          "type": "address"
        }
      ],
      "name": "OwnableUnauthorizedAccount",
      "type": "error"
    },
    {
      "anonymous": false,
      "inputs": [
        {
          "indexed": true,
          "internalType": "address",
          "name": "owner",
          "type": "address"
        },
        {
          "indexed": true,
          "internalType": "address",
          "name": "spender",
          "type": "address"
        },
        {
          "indexed": false,
          "internalType": "uint256",
          "name": "value",
          "type": "uint256"
        }
      ],
      "name": "Approval",
      "type": "event"
    },
    {
      "anonymous": false,
      "inputs": [
        {
          "indexed": true,
          "internalType": "address",
          "name": "previousOwner",
          "type": "address"
        },
        {
          "indexed": true,
          "internalType": "address",
          "name": "newOwner",
          "type": "address"
        }
      ],
      "name": "OwnershipTransferred",
      "type": "event"
    },
    {
      "anonymous": false,
      "inputs": [
        {
          "indexed": true,
          "internalType": "address",
          "name": "from",
          "type": "address"
        },
        {
          "indexed": true,
          "internalType": "address",
          "name": "to",
          "type": "address"
        },
        {
          "indexed": false,
          "internalType": "uint256",
          "name": "value",
          "type": "uint256"
        }
      ],
      "name": "Transfer",
      "type": "event"
    },
    {
      "inputs": [
        {
          "internalType": "address",
          "name": "owner",
          "type": "address"
        },
        {
          "internalType": "address",
          "name": "spender",
          "type": "address"
        }
      ],
      "name": "allowance",
      "outputs": [
        {
          "internalType": "uint256",
          "name": "",
          "type": "uint256"
        }
      ],
      "stateMutability": "view",
      "type": "function"
    },
    {
      "inputs": [
        {
          "internalType": "address",
          "name": "spender",
          "type": "address"
        },
        {
          "internalType": "uint256",
          "name": "value",
          "type": "uint256"
        }
      ],
      "name": "approve",
      "outputs": [
        {
          "internalType": "bool",
          "name": "",
          "type": "bool"
        }
      ],
      "stateMutability": "nonpayable",
      "type": "function"
    },
    {
      "inputs": [
        {
          "internalType": "address",
          "name": "account",
          "type": "address"
        }
      ],
      "name": "balanceOf",
      "outputs": [
        {
          "internalType": "uint256",
          "name": "",
          "type": "uint256"
        }
      ],
      "stateMutability": "view",
      "type": "function"
    },
    {
      "inputs": [],
      "name": "decimals",
      "outputs": [
        {
          "internalType": "uint8",
          "name": "",
          "type": "uint8"
        }
      ],
      "stateMutability": "view",
      "type": "function"
    },
    {
      "inputs": [],
      "name": "demoPrice",
      "outputs": [
        {
          "internalType": "uint256",
          "name": "",
          "type": "uint256"
        }
      ],
      "stateMutability": "view",
      "type": "function"
    },
    {
      "inputs": [],
      "name": "getDemoPrice",
      "outputs": [
        {
          "internalType": "uint256",
          "name": "",
          "type": "uint256"
        }
      ],
      "stateMutability": "view",
      "type": "function"
    },
    {
      "inputs": [],
      "name": "name",
      "outputs": [
        {
          "internalType": "string",
          "name": "",
          "type": "string"
        }
      ],
      "stateMutability": "view",
      "type": "function"
    },
    {
      "inputs": [],
      "name": "owner",
      "outputs": [
        {
          "internalType": "address",
          "name": "",
          "type": "address"
        }
      ],
      "stateMutability": "view",
      "type": "function"
    },
    {
      "inputs": [],
      "name": "renounceOwnership",
      "outputs": [],
      "stateMutability": "nonpayable",
      "type": "function"
    },
    {
      "inputs": [
        {
          "internalType": "uint256",
          "name": "newPrice",
          "type": "uint256"
        }
      ],
      "name": "setDemoPrice",
      "outputs": [],
      "stateMutability": "nonpayable",
      "type": "function"
    },
    {
      "inputs": [],
      "name": "symbol",
      "outputs": [
        {
          "internalType": "string",
          "name": "",
          "type": "string"
        }
      ],
      "stateMutability": "view",
      "type": "function"
    },
    {
      "inputs": [],
      "name": "totalSupply",
      "outputs": [
        {
          "internalType": "uint256",
          "name": "",
          "type": "uint256"
        }
      ],
      "stateMutability": "view",
      "type": "function"
    },
    {
      "inputs": [
        {
          "internalType": "address",
          "name": "to",
          "type": "address"
        },
        {
          "internalType": "uint256",
          "name": "amount",
          "type": "uint256"
        }
      ],
      "name": "transfer",
      "outputs": [
        {
          "internalType": "bool",
          "name": "",
          "type": "bool"
        }
      ],
      "stateMutability": "nonpayable",
      "type": "function"
    },
    {
      "inputs": [
        {
          "internalType": "address",
          "name": "from",
          "type": "address"
        },
        {
          "internalType": "address",
          "name": "to",
          "type": "address"
        },
        {
          "internalType": "uint256",
          "name": "amount",
          "type": "uint256"
        }
      ],
      "name": "transferFrom",
      "outputs": [
        {
          "internalType": "bool",
          "name": "",
          "type": "bool"
        }
      ],
      "stateMutability": "nonpayable",
      "type": "function"
    },
    {
      "inputs": [
        {
          "internalType": "address",
          "name": "newOwner",
          "type": "address"
        }
      ],
      "name": "transferOwnership",
      "outputs": [],
      "stateMutability": "nonpayable",
      "type": "function"
    }
  ],
  "bytecode": "0x6080604052670de0b6b3a76400006006553480156200001d57600080fd5b50336040518060400160405280600a8152602001692ab9b23a16ba37b5b2b760b11b815250604051806040016040528060048152602001631554d11560e21b815250816003908162000070919062000354565b5060046200007f828262000354565b5050506001600160a01b038116620000b257604051631e4fbdf760e01b8152600060048201526024015b60405180910390fd5b620000bd81620000ec565b50620000e633620000d16012600a62000535565b620000e090620f42406200054d565b6200013e565b6200057d565b600580546001600160a01b038381166001600160a01b0319831681179093556040519116919082907f8be0079c531659141344cd1fd0a4f28419497f9722a3daafe3b4186f6b6457e090600090a35050565b6001600160a01b0382166200016a5760405163ec442f0560e01b815260006004820152602401620000a9565b62000178600083836200017c565b5050565b6001600160a01b038316620001ab5780600260008282546200019f919062000567565b909155506200021f9050565b6001600160a01b03831660009081526020819052604090205481811015620002005760405163391434e360e21b81526001600160a01b03851660048201526024810182905260448101839052606401620000a9565b6001600160a01b03841660009081526020819052604090209082900390555b6001600160a01b0382166200023d576002805482900390556200025c565b6001600160a01b03821660009081526020819052604090208054820190555b816001600160a01b0316836001600160a01b03167fddf252ad1be2c89b69c2b068fc378daa952ba7f163c4a11628f55a4df523b3ef83604051620002a291815260200190565b60405180910390a3505050565b634e487b7160e01b600052604160045260246000fd5b600181811c90821680620002da57607f821691505b602082108103620002fb57634e487b7160e01b600052602260045260246000fd5b50919050565b601f8211156200034f57600081815260208120601f850160051c810160208610156200032a5750805b601f850160051c820191505b818110156200034b5782815560010162000336565b5050505b505050565b81516001600160401b03811115620003705762000370620002af565b6200038881620003818454620002c5565b8462000301565b602080601f831160018114620003c05760008415620003a75750858301515b600019600386901b1c1916600185901b1785556200034b565b600085815260208120601f198616915b82811015620003f157888601518255948401946001909101908401620003d0565b5085821015620004105787850151600019600388901b60f8161c191681555b5050505050600190811b01905550565b634e487b7160e01b600052601160045260246000fd5b600181815b80851115620004775781600019048211156200045b576200045b62000420565b808516156200046957918102915b93841c93908002906200043b565b509250929050565b60008262000490575060016200052f565b816200049f575060006200052f565b8160018114620004b85760028114620004c357620004e3565b60019150506200052f565b60ff841115620004d757620004d762000420565b50506001821b6200052f565b5060208310610133831016604e8410600b841016171562000508575081810a6200052f565b62000514838362000436565b80600019048211156200052b576200052b62000420565b0290505b92915050565b60006200054660ff8416836200047f565b9392505050565b80820281158282048414176200052f576200052f62000420565b808201808211156200052f576200052f62000420565b6109d5806200058d6000396000f3fe608060405234801561001057600080fd5b50600436106100f55760003560e01c806365863ff01161009757806395d89b411161006657806395d89b41146101e1578063a9059cbb146101e9578063dd62ed3e146101fc578063f2fde38b1461023557600080fd5b806365863ff01461018057806370a0823114610195578063715018a6146101be5780638da5cb5b146101c657600080fd5b80631d7e70a5116100d35780631d7e70a51461014d57806323b872dd14610155578063313ce567146101685780634014afcb1461017757600080fd5b806306fdde03146100fa578063095ea7b31461011857806318160ddd1461013b575b600080fd5b610102610248565b60405161010f91906107c1565b60405180910390f35b61012b61012636600461082b565b6102da565b604051901515815260200161010f565b6002545b60405190815260200161010f565b60065461013f565b61012b610163366004610855565b6102f4565b6040516012815260200161010f565b61013f60065481565b61019361018e366004610891565b61035e565b005b61013f6101a33660046108aa565b6001600160a01b031660009081526020819052604090205490565b61019361036b565b6005546040516001600160a01b03909116815260200161010f565b61010261037f565b61012b6101f736600461082b565b61038e565b61013f61020a3660046108c5565b6001600160a01b03918216600090815260016020908152604080832093909416825291909152205490565b6101936102433660046108aa565b6103ed565b606060038054610257906108f8565b80601f0160208091040260200160405190810160405280929190818152602001828054610283906108f8565b80156102d05780601f106102a5576101008083540402835291602001916102d0565b820191906000526020600020905b8154815290600101906020018083116102b357829003601f168201915b5050505050905090565b6000336102e881858561042b565b60019150505b92915050565b6005546000906001600160a01b031633148061032657506001600160a01b038316600090815260208190526040812054115b61034b5760405162461bcd60e51b815260040161034290610932565b60405180910390fd5b61035684848461043d565b949350505050565b610366610461565b600655565b610373610461565b61037d600061048e565b565b606060048054610257906108f8565b6005546000906001600160a01b03163314806103c057506001600160a01b038316600090815260208190526040812054115b6103dc5760405162461bcd60e51b815260040161034290610932565b6103e683836104e0565b9392505050565b6103f5610461565b6001600160a01b03811661041f57604051631e4fbdf760e01b815260006004820152602401610342565b6104288161048e565b50565b61043883838360016104ee565b505050565b60003361044b8582856105c4565b61045685858561063d565b506001949350505050565b6005546001600160a01b0316331461037d5760405163118cdaa760e01b8152336004820152602401610342565b600580546001600160a01b038381166001600160a01b0319831681179093556040519116919082907f8be0079c531659141344cd1fd0a4f28419497f9722a3daafe3b4186f6b6457e090600090a35050565b6000336102e881858561063d565b6001600160a01b0384166105185760405163e602df0560e01b815260006004820152602401610342565b6001600160a01b03831661054257604051634a1406b160e11b815260006004820152602401610342565b6001600160a01b03808516600090815260016020908152604080832093871683529290522082905580156105be57826001600160a01b0316846001600160a01b03167f8c5be1e5ebec7d5bd14f71427d1e84f3dd0314c0f7b2291e5b200ac8c7c3b925846040516105b591815260200190565b60405180910390a35b50505050565b6001600160a01b038381166000908152600160209081526040808320938616835292905220546000198110156105be578181101561062e57604051637dc7a0d960e11b81526001600160a01b03841660048201526024810182905260448101839052606401610342565b6105be848484840360006104ee565b6001600160a01b03831661066757604051634b637e8f60e11b815260006004820152602401610342565b6001600160a01b0382166106915760405163ec442f0560e01b815260006004820152602401610342565b6104388383836001600160a01b0383166106c25780600260008282546106b7919061097e565b909155506107349050565b6001600160a01b038316600090815260208190526040902054818110156107155760405163391434e360e21b81526001600160a01b03851660048201526024810182905260448101839052606401610342565b6001600160a01b03841660009081526020819052604090209082900390555b6001600160a01b0382166107505760028054829003905561076f565b6001600160a01b03821660009081526020819052604090208054820190555b816001600160a01b0316836001600160a01b03167fddf252ad1be2c89b69c2b068fc378daa952ba7f163c4a11628f55a4df523b3ef836040516107b491815260200190565b60405180910390a3505050565b600060208083528351808285015260005b818110156107ee578581018301518582016040015282016107d2565b506000604082860101526040601f19601f8301168501019250505092915050565b80356001600160a01b038116811461082657600080fd5b919050565b6000806040838503121561083e57600080fd5b6108478361080f565b946020939093013593505050565b60008060006060848603121561086a57600080fd5b6108738461080f565b92506108816020850161080f565b9150604084013590509250925092565b6000602082840312156108a357600080fd5b5035919050565b6000602082840312156108bc57600080fd5b6103e68261080f565b600080604083850312156108d857600080fd5b6108e18361080f565b91506108ef6020840161080f565b90509250929050565b600181811c9082168061090c57607f821691505b60208210810361092c57634e487b7160e01b600052602260045260246000fd5b50919050565b6020808252602c908201527f55736474546f6b656e3a204f6e6c79206f776e65722063616e20696e6974696160408201526b7465207472616e736665727360a01b606082015260800190565b808201808211156102ee57634e487b7160e01b600052601160045260246000fdfea2646970667358221220f48ee98f99524329930dd8f9d759fce4c5920411e536e6f83ec6f6694d58f0bd64736f6c63430008140033",
  "linkReferences": {},
  "deployedLinkReferences": {}
}