{
  "_format": "hh-sol-artifact-1",
  "contractName": "UsdtToken",
  "sourceName": "contracts/UsdtToken.sol",
  "abi": [
    {
      "inputs": [],
      "stateMutability": "nonpayable",
      "type": "constructor"
    },
    {
      "inputs": [
        {
          "internalType": "address",
          "name": "spender",
          "type": "address"
        },
        {
          "internalType": "uint256",
          "name": "allowance",
          "type": "uint256"
        },
        {
          "internalType": "uint256",
          "name": "needed",
          "type": "uint256"
        }
      ],
      "name": "ERC20InsufficientAllowance",
      "type": "error"
    },
    {
      "inputs": [
        {
          "internalType": "address",
          "name": "sender",
          "type": "address"
        },
        {
          "internalType": "uint256",
          "name": "balance",
          "type": "uint256"
        },
        {
          "internalType": "uint256",
          "name": "needed",
          "type": "uint256"
        }
      ],
      "name": "ERC20InsufficientBalance",
      "type": "error"
    },
    {
      "inputs": [
        {
          "internalType": "address",
          "name": "approver",
          "type": "address"
        }
      ],
      "name": "ERC20InvalidApprover",
      "type": "error"
    },
    {
      "inputs": [
        {
          "internalType": "address",
          "name": "receiver",
          "type": "address"
        }
      ],
      "name": "ERC20InvalidReceiver",
      "type": "error"
    },
    {
      "inputs": [
        {
          "internalType": "address",
          "name": "sender",
          "type": "address"
        }
      ],
      "name": "ERC20InvalidSender",
      "type": "error"
    },
    {
      "inputs": [
        {
          "internalType": "address",
          "name": "spender",
          "type": "address"
        }
      ],
      "name": "ERC20InvalidSpender",
      "type": "error"
    },
    {
      "inputs": [
        {
          "internalType": "address",
          "name": "owner",
          "type": "address"
        }
      ],
      "name": "OwnableInvalidOwner",
      "type": "error"
    },
    {
      "inputs": [
        {
          "internalType": "address",
          "name": "account",
          "type": "address"
        }
      ],
      "name": "OwnableUnauthorizedAccount",
      "type": "error"
    },
    {
      "anonymous": false,
      "inputs": [
        {
          "indexed": true,
          "internalType": "address",
          "name": "owner",
          "type": "address"
        },
        {
          "indexed": true,
          "internalType": "address",
          "name": "spender",
          "type": "address"
        },
        {
          "indexed": false,
          "internalType": "uint256",
          "name": "value",
          "type": "uint256"
        }
      ],
      "name": "Approval",
      "type": "event"
    },
    {
      "anonymous": false,
      "inputs": [
        {
          "indexed": true,
          "internalType": "address",
          "name": "previousOwner",
          "type": "address"
        },
        {
          "indexed": true,
          "internalType": "address",
          "name": "newOwner",
          "type": "address"
        }
      ],
      "name": "OwnershipTransferred",
      "type": "event"
    },
    {
      "anonymous": false,
      "inputs": [
        {
          "indexed": true,
          "internalType": "address",
          "name": "from",
          "type": "address"
        },
        {
          "indexed": true,
          "internalType": "address",
          "name": "to",
          "type": "address"
        },
        {
          "indexed": false,
          "internalType": "uint256",
          "name": "value",
          "type": "uint256"
        }
      ],
      "name": "Transfer",
      "type": "event"
    },
    {
      "inputs": [
        {
          "internalType": "address",
          "name": "owner",
          "type": "address"
        },
        {
          "internalType": "address",
          "name": "spender",
          "type": "address"
        }
      ],
      "name": "allowance",
      "outputs": [
        {
          "internalType": "uint256",
          "name": "",
          "type": "uint256"
        }
      ],
      "stateMutability": "view",
      "type": "function"
    },
    {
      "inputs": [
        {
          "internalType": "address",
          "name": "spender",
          "type": "address"
        },
        {
          "internalType": "uint256",
          "name": "value",
          "type": "uint256"
        }
      ],
      "name": "approve",
      "outputs": [
        {
          "internalType": "bool",
          "name": "",
          "type": "bool"
        }
      ],
      "stateMutability": "nonpayable",
      "type": "function"
    },
    {
      "inputs": [
        {
          "internalType": "address",
          "name": "account",
          "type": "address"
        }
      ],
      "name": "balanceOf",
      "outputs": [
        {
          "internalType": "uint256",
          "name": "",
          "type": "uint256"
        }
      ],
      "stateMutability": "view",
      "type": "function"
    },
    {
      "inputs": [],
      "name": "decimals",
      "outputs": [
        {
          "internalType": "uint8",
          "name": "",
          "type": "uint8"
        }
      ],
      "stateMutability": "view",
      "type": "function"
    },
    {
      "inputs": [],
      "name": "demoPrice",
      "outputs": [
        {
          "internalType": "uint256",
          "name": "",
          "type": "uint256"
        }
      ],
      "stateMutability": "view",
      "type": "function"
    },
    {
      "inputs": [],
      "name": "getDemoPrice",
      "outputs": [
        {
          "internalType": "uint256",
          "name": "",
          "type": "uint256"
        }
      ],
      "stateMutability": "view",
      "type": "function"
    },
    {
      "inputs": [],
      "name": "getMetadata",
      "outputs": [
        {
          "internalType": "string",
          "name": "",
          "type": "string"
        },
        {
          "internalType": "string",
          "name": "",
          "type": "string"
        },
        {
          "internalType": "string",
          "name": "",
          "type": "string"
        },
        {
          "internalType": "string",
          "name": "",
          "type": "string"
        }
      ],
      "stateMutability": "pure",
      "type": "function"
    },
    {
      "inputs": [],
      "name": "metadataDescription",
      "outputs": [
        {
          "internalType": "string",
          "name": "",
          "type": "string"
        }
      ],
      "stateMutability": "view",
      "type": "function"
    },
    {
      "inputs": [],
      "name": "metadataImage",
      "outputs": [
        {
          "internalType": "string",
          "name": "",
          "type": "string"
        }
      ],
      "stateMutability": "view",
      "type": "function"
    },
    {
      "inputs": [],
      "name": "metadataName",
      "outputs": [
        {
          "internalType": "string",
          "name": "",
          "type": "string"
        }
      ],
      "stateMutability": "view",
      "type": "function"
    },
    {
      "inputs": [],
      "name": "metadataSymbol",
      "outputs": [
        {
          "internalType": "string",
          "name": "",
          "type": "string"
        }
      ],
      "stateMutability": "view",
      "type": "function"
    },
    {
      "inputs": [],
      "name": "name",
      "outputs": [
        {
          "internalType": "string",
          "name": "",
          "type": "string"
        }
      ],
      "stateMutability": "view",
      "type": "function"
    },
    {
      "inputs": [],
      "name": "owner",
      "outputs": [
        {
          "internalType": "address",
          "name": "",
          "type": "address"
        }
      ],
      "stateMutability": "view",
      "type": "function"
    },
    {
      "inputs": [],
      "name": "renounceOwnership",
      "outputs": [],
      "stateMutability": "nonpayable",
      "type": "function"
    },
    {
      "inputs": [
        {
          "internalType": "uint256",
          "name": "newPrice",
          "type": "uint256"
        }
      ],
      "name": "setDemoPrice",
      "outputs": [],
      "stateMutability": "nonpayable",
      "type": "function"
    },
    {
      "inputs": [],
      "name": "symbol",
      "outputs": [
        {
          "internalType": "string",
          "name": "",
          "type": "string"
        }
      ],
      "stateMutability": "view",
      "type": "function"
    },
    {
      "inputs": [],
      "name": "totalSupply",
      "outputs": [
        {
          "internalType": "uint256",
          "name": "",
          "type": "uint256"
        }
      ],
      "stateMutability": "view",
      "type": "function"
    },
    {
      "inputs": [
        {
          "internalType": "address",
          "name": "to",
          "type": "address"
        },
        {
          "internalType": "uint256",
          "name": "amount",
          "type": "uint256"
        }
      ],
      "name": "transfer",
      "outputs": [
        {
          "internalType": "bool",
          "name": "",
          "type": "bool"
        }
      ],
      "stateMutability": "nonpayable",
      "type": "function"
    },
    {
      "inputs": [
        {
          "internalType": "address",
          "name": "from",
          "type": "address"
        },
        {
          "internalType": "address",
          "name": "to",
          "type": "address"
        },
        {
          "internalType": "uint256",
          "name": "amount",
          "type": "uint256"
        }
      ],
      "name": "transferFrom",
      "outputs": [
        {
          "internalType": "bool",
          "name": "",
          "type": "bool"
        }
      ],
      "stateMutability": "nonpayable",
      "type": "function"
    },
    {
      "inputs": [
        {
          "internalType": "address",
          "name": "newOwner",
          "type": "address"
        }
      ],
      "name": "transferOwnership",
      "outputs": [],
      "stateMutability": "nonpayable",
      "type": "function"
    }
  ],
  "bytecode": "0x6080604052670de0b6b3a76400006006553480156200001d57600080fd5b50336040518060400160405280600a8152602001692ab9b23a16ba37b5b2b760b11b815250604051806040016040528060048152602001631554d11560e21b815250816003908162000070919062000354565b5060046200007f828262000354565b5050506001600160a01b038116620000b257604051631e4fbdf760e01b8152600060048201526024015b60405180910390fd5b620000bd81620000ec565b50620000e633620000d16012600a62000535565b620000e090620186a06200054d565b6200013e565b6200057d565b600580546001600160a01b038381166001600160a01b0319831681179093556040519116919082907f8be0079c531659141344cd1fd0a4f28419497f9722a3daafe3b4186f6b6457e090600090a35050565b6001600160a01b0382166200016a5760405163ec442f0560e01b815260006004820152602401620000a9565b62000178600083836200017c565b5050565b6001600160a01b038316620001ab5780600260008282546200019f919062000567565b909155506200021f9050565b6001600160a01b03831660009081526020819052604090205481811015620002005760405163391434e360e21b81526001600160a01b03851660048201526024810182905260448101839052606401620000a9565b6001600160a01b03841660009081526020819052604090209082900390555b6001600160a01b0382166200023d576002805482900390556200025c565b6001600160a01b03821660009081526020819052604090208054820190555b816001600160a01b0316836001600160a01b03167fddf252ad1be2c89b69c2b068fc378daa952ba7f163c4a11628f55a4df523b3ef83604051620002a291815260200190565b60405180910390a3505050565b634e487b7160e01b600052604160045260246000fd5b600181811c90821680620002da57607f821691505b602082108103620002fb57634e487b7160e01b600052602260045260246000fd5b50919050565b601f8211156200034f57600081815260208120601f850160051c810160208610156200032a5750805b601f850160051c820191505b818110156200034b5782815560010162000336565b5050505b505050565b81516001600160401b03811115620003705762000370620002af565b6200038881620003818454620002c5565b8462000301565b602080601f831160018114620003c05760008415620003a75750858301515b600019600386901b1c1916600185901b1785556200034b565b600085815260208120601f198616915b82811015620003f157888601518255948401946001909101908401620003d0565b5085821015620004105787850151600019600388901b60f8161c191681555b5050505050600190811b01905550565b634e487b7160e01b600052601160045260246000fd5b600181815b80851115620004775781600019048211156200045b576200045b62000420565b808516156200046957918102915b93841c93908002906200043b565b509250929050565b60008262000490575060016200052f565b816200049f575060006200052f565b8160018114620004b85760028114620004c357620004e3565b60019150506200052f565b60ff841115620004d757620004d762000420565b50506001821b6200052f565b5060208310610133831016604e8410600b841016171562000508575081810a6200052f565b62000514838362000436565b80600019048211156200052b576200052b62000420565b0290505b92915050565b60006200054660ff8416836200047f565b9392505050565b80820281158282048414176200052f576200052f62000420565b808201808211156200052f576200052f62000420565b610c3c806200058d6000396000f3fe608060405234801561001057600080fd5b506004361061012c5760003560e01c806370a08231116100ad578063942c927311610071578063942c92731461028457806395d89b41146102ad578063a9059cbb146102b5578063dd62ed3e146102c8578063f2fde38b1461030157600080fd5b806370a0823114610218578063715018a614610241578063757830ef146102495780637a5b4f59146102515780638da5cb5b1461026957600080fd5b806323b872dd116100f457806323b872dd146101af578063313ce567146101c25780634014afcb146101d157806340560464146101da57806365863ff01461020357600080fd5b806304ebd2011461013157806306fdde031461016a578063095ea7b31461017257806318160ddd146101955780631d7e70a5146101a7575b600080fd5b610154604051806040016040528060048152602001631554d11560e21b81525081565b604051610161919061097f565b60405180910390f35b610154610314565b6101856101803660046109ae565b6103a6565b6040519015158152602001610161565b6002545b604051908152602001610161565b600654610199565b6101856101bd3660046109d8565b6103c0565b60405160128152602001610161565b61019960065481565b6101546040518060400160405280600a8152602001692ab9b23a16ba37b5b2b760b11b81525081565b610216610211366004610a14565b61042a565b005b610199610226366004610a2d565b6001600160a01b031660009081526020819052604090205490565b610216610437565b61015461044b565b610259610467565b6040516101619493929190610a48565b6005546040516001600160a01b039091168152602001610161565b6101546040518060400160405280600a8152602001692aa9a22a102a37b5b2b760b11b81525081565b6101546104f7565b6101856102c33660046109ae565b610506565b6101996102d6366004610aa0565b6001600160a01b03918216600090815260016020908152604080832093909416825291909152205490565b61021661030f366004610a2d565b610565565b60606003805461032390610ad3565b80601f016020809104026020016040519081016040528092919081815260200182805461034f90610ad3565b801561039c5780601f106103715761010080835404028352916020019161039c565b820191906000526020600020905b81548152906001019060200180831161037f57829003601f168201915b5050505050905090565b6000336103b48185856105a3565b60019150505b92915050565b6005546000906001600160a01b03163314806103f257506001600160a01b038316600090815260208190526040812054115b6104175760405162461bcd60e51b815260040161040e90610b0d565b60405180910390fd5b6104228484846105b5565b949350505050565b6104326105d9565b600655565b61043f6105d9565b6104496000610606565b565b6040518060800160405280605e8152602001610ba9605e913981565b6060806060806040518060400160405280600a8152602001692ab9b23a16ba37b5b2b760b11b815250604051806040016040528060048152602001631554d11560e21b8152506040518060800160405280605e8152602001610ba9605e91396040518060400160405280600a8152602001692aa9a22a102a37b5b2b760b11b815250935093509350935090919293565b60606004805461032390610ad3565b6005546000906001600160a01b031633148061053857506001600160a01b038316600090815260208190526040812054115b6105545760405162461bcd60e51b815260040161040e90610b0d565b61055e8383610658565b9392505050565b61056d6105d9565b6001600160a01b03811661059757604051631e4fbdf760e01b81526000600482015260240161040e565b6105a081610606565b50565b6105b08383836001610666565b505050565b6000336105c385828561073c565b6105ce8585856107b5565b506001949350505050565b6005546001600160a01b031633146104495760405163118cdaa760e01b815233600482015260240161040e565b600580546001600160a01b038381166001600160a01b0319831681179093556040519116919082907f8be0079c531659141344cd1fd0a4f28419497f9722a3daafe3b4186f6b6457e090600090a35050565b6000336103b48185856107b5565b6001600160a01b0384166106905760405163e602df0560e01b81526000600482015260240161040e565b6001600160a01b0383166106ba57604051634a1406b160e11b81526000600482015260240161040e565b6001600160a01b038085166000908152600160209081526040808320938716835292905220829055801561073657826001600160a01b0316846001600160a01b03167f8c5be1e5ebec7d5bd14f71427d1e84f3dd0314c0f7b2291e5b200ac8c7c3b9258460405161072d91815260200190565b60405180910390a35b50505050565b6001600160a01b0383811660009081526001602090815260408083209386168352929052205460001981101561073657818110156107a657604051637dc7a0d960e11b81526001600160a01b0384166004820152602481018290526044810183905260640161040e565b61073684848484036000610666565b6001600160a01b0383166107df57604051634b637e8f60e11b81526000600482015260240161040e565b6001600160a01b0382166108095760405163ec442f0560e01b81526000600482015260240161040e565b6105b08383836001600160a01b03831661083a57806002600082825461082f9190610b87565b909155506108ac9050565b6001600160a01b0383166000908152602081905260409020548181101561088d5760405163391434e360e21b81526001600160a01b0385166004820152602481018290526044810183905260640161040e565b6001600160a01b03841660009081526020819052604090209082900390555b6001600160a01b0382166108c8576002805482900390556108e7565b6001600160a01b03821660009081526020819052604090208054820190555b816001600160a01b0316836001600160a01b03167fddf252ad1be2c89b69c2b068fc378daa952ba7f163c4a11628f55a4df523b3ef8360405161092c91815260200190565b60405180910390a3505050565b6000815180845260005b8181101561095f57602081850181015186830182015201610943565b506000602082860101526020601f19601f83011685010191505092915050565b60208152600061055e6020830184610939565b80356001600160a01b03811681146109a957600080fd5b919050565b600080604083850312156109c157600080fd5b6109ca83610992565b946020939093013593505050565b6000806000606084860312156109ed57600080fd5b6109f684610992565b9250610a0460208501610992565b9150604084013590509250925092565b600060208284031215610a2657600080fd5b5035919050565b600060208284031215610a3f57600080fd5b61055e82610992565b608081526000610a5b6080830187610939565b8281036020840152610a6d8187610939565b90508281036040840152610a818186610939565b90508281036060840152610a958185610939565b979650505050505050565b60008060408385031215610ab357600080fd5b610abc83610992565b9150610aca60208401610992565b90509250929050565b600181811c90821680610ae757607f821691505b602082108103610b0757634e487b7160e01b600052602260045260246000fd5b50919050565b60208082526054908201527f55736474546f6b656e3a205468697320546f6b656e20686173206e6f7420796560408201527f74206265656e20756e6c6f636b65642c20596f75206d7573742068617665206d606082015273696e696d756d206f6620302e303830392042544360601b608082015260a00190565b808201808211156103ba57634e487b7160e01b600052601160045260246000fdfe68747470733a2f2f7261772e67697468756275736572636f6e74656e742e636f6d2f43727970746f7661756c7469712f557364742d666c6173682d746f6b656e2f6d61696e2f66726f6e74656e642f7075626c69632f555344542e706e67a264697066735822122024bdc8ad04e3da6b9b83c9ee1323eb8655b3949c629b37ff4e83a44f75d44d3364736f6c63430008140033",
  "linkReferences": {},
  "deployedLinkReferences": {}
}